:020000040000FA
:10000000B8040020650100008501000087010000A0
:1000100000000000000000000000000000000000E0
:100020000000000000000000000000008901000046
:1000300000000000000000008B0100008D010000A6
:10004000910300008F010000591100007D11000094
:10005000F1110000351200008F0100008F01000037
:100060008F0100008F0100008F0100008F01000050
:100070006D130000A91300008F0100008F01000024
:100080008F0100008F0100008F0100008F01000030
:100090008F0100008F0100008F0100008F01000020
:1000A0008F0100008F0100008F0100008F01000010
:1000B000411300008F0100008F0100008F0100003C
:1000C00000F002F800F03EF80CA030C80838241800
:1000D0002D18A246671EAB4654465D46AC4201D180
:1000E00000F030F87E460F3E0FCCB6460126334274
:1000F00000D0FB1AA246AB463343184788140000D1
:10010000A8140000103A02D378C878C1FAD8520770
:1001100001D330C830C101D504680C6070470000BD
:100120000023002400250026103A01D378C1FBD813
:10013000520700D330C100D50B6070471FB51FBDFB
:1001400010B510BD00F0F0F81146FFF7F7FF01F011
:1001500083F900F008F903B4FFF7F2FF03BC00F0E5
:100160000FF900000D480E4901600E4901600E496B
:1001700001600E4A0E491160002101600D48804760
:100180000D480047FEE7FEE7FEE7FEE7FEE7FEE775
:100190000A480B49094A0B4B704700000001005008
:1001A00059000000160000008800000024000050E4
:1001B000A55A000069130000C1000000B80000202B
:1001C000B8040020B8000020002203098B422CD381
:1001D000030A8B4211D300239C464EE003460B4397
:1001E0003CD4002243088B4231D303098B421CD3F9
:1001F000030A8B4201D394463FE0C3098B4201D3EB
:10020000CB01C01A524183098B4201D38B01C01A22
:10021000524143098B4201D34B01C01A5241030999
:100220008B4201D30B01C01A5241C3088B4201D348
:10023000CB00C01A524183088B4201D38B00C01AF5
:10024000524143088B4201D34B00C01A5241411A1C
:1002500000D201465241104670475DE0CA0F00D0FF
:100260004942031000D34042534000229C460309F8
:100270008B422DD3030A8B4212D3FC22890112BA7E
:10028000030A8B420CD3890192118B4208D3890156
:1002900092118B4204D389013AD0921100E089096E
:1002A000C3098B4201D3CB01C01A524183098B424F
:1002B00001D38B01C01A524143098B4201D34B0138
:1002C000C01A524103098B4201D30B01C01A52419B
:1002D000C3088B4201D3CB00C01A524183088B4222
:1002E00001D38B00C01A5241D9D243088B4201D3AB
:1002F0004B00C01A5241411A00D201466346524196
:100300005B10104601D34042002B00D54942704794
:1003100063465B1000D3404201B50020C046C04692
:1003200002BD704770477047754600F025F8AE462D
:10033000050069465346C008C000854618B020B580
:10034000FFF726FF60BC00274908B6460026C0C557
:10035000C0C5C0C5C0C5C0C5C0C5C0C5C0C5403D7D
:1003600049008D46704710B50446C046C046204639
:10037000FFF7F1FE10BD0000004870475800002054
:1003800001491820ABBEFEE72600020070470000BE
:1003900010B5052000078069102188431030052121
:1003A0000907886103480068002802D001480068F6
:1003B000804710BD40000020F7B582B01746314895
:1003C0003C1803990298FFF7FFFE0007000F03286F
:1003D0000FD2606A0121490788436062606A491050
:1003E0008843606203990298FFF7EEFE0009861EBB
:1003F00040E0606A01214907884340186062606AF2
:10040000491088434018606203990298FFF7DCFEA8
:10041000861E1D4886422DDD606A012149078843FA
:1004200040186062606A49108843606208251EE0D7
:1004300003990298FFF7C8FE691C0190FFF7C4FEFC
:10044000032913D2606A0F210906884329060F2267
:10045000120611400843606203990298FFF7B4FE48
:10046000691C0190FFF7B0FE861E02E06D1C102D86
:10047000DEDB00BF606A000C0004B1B208436062BA
:1004800005B0F0BD00000540FFFF000008B50246C2
:10049000002901DB102901DD054808BD9001054B4D
:1004A000C018009000980068C840C007C00FF4E76B
:1004B0000189FFFF1040005010B501460B0000F00D
:1004C000BDFF3E202A414B5C747D7E94A4B4F1EFC5
:1004D000EEEDECEBEAE9E8E7E6E5E4E3E2E1E0DFB4
:1004E000DEDDDCDBDAD9D8D7D6D5D4D3D2D1D0CFA4
:1004F000CECDCCCBCAC9C8C7C6C5C4C3C2C1C0BF94
:10050000BEBD002005231B07186358639863D8639A
:10051000FA4B186071E305200007406B01231B03B1
:10052000184305231B075863F448006901239B0205
:100530001843F24B1861184600695B019843EF4B72
:1005400018615AE305200007006B03231B021843C0
:1005500005231B07186350E305200007006B0323E6
:100560009B02184305231B071863E4480069012315
:10057000DB029843E14B18613FE305200007806BE5
:100580000F23184305231B0798631846006B0123AC
:10059000DB03184305231B071863D84800691F2392
:1005A0005B011843D54B186127E305200007C06B9A
:1005B000C023184305231B07D8631EE300BF062989
:1005C00001D1062200E00E2205200007806B0323E4
:1005D0009340184305231B079863C848006901230B
:1005E000DB029843C54B186107E305200007806BC9
:1005F0000F23184305231B079863C0480069FF2396
:10060000E1339843BD4B1861F7E205200007406BCA
:1006100001239B02184305231B075863B748006951
:1006200001231843B54B1861E7E205200007806BF2
:100630003023184305231B079863DEE2DBE264E204
:1006400082E248E246E213E211E2D9E1D7E1B7E102
:10065000B5E141E20DE2D4E1B3E1A6E165E163E198
:1006600061E15FE15DE15BE14AE137E129E117E149
:1006700006E1F5E0E4E0D9E0CCE0C4E0A3E0AEE0E0
:10068000ACE0AAE0A8E0A6E0A4E0B0E092E088E058
:100690007EE073E062E057E04DE037E02DE022E0DD
:1006A00011E0FFE705200007806B0F231B021843B2
:1006B00005231B079863914800690123DB029843D7
:1006C0008E4B186199E205200007406B01235B0205
:1006D000184305231B075863884800690223184301
:1006E000864B186189E205200007806B03231B03FA
:1006F000184305231B0798637FE205200007C06BA2
:100700000F23184305231B07D86376E20520000753
:10071000006B8023184305231B0718637748006983
:1007200004231843754B1861184600695B01984310
:10073000724B186161E205200007C06B302318433B
:1007400005231B07D86358E205200007C06B0F2361
:100750001B02184305231B07D8634EE20520000740
:10076000406B01239B03184305231B075863634811
:10077000006908231843614B18613EE20520000719
:10078000C06B03231B03184305231B07D86334E204
:1007900005200007806B0F23184305231B07986370
:1007A0002BE205200007C06B0223184305231B071B
:1007B000D86322E205200007C06B042318430523F9
:1007C0001B07D86319E24D480069042398434B4B3B
:1007D000186100BF00BF00BF00BF00BF00BF474897
:1007E00000690123DB029843444B186100BF0520D8
:1007F0000007006B0B46173B01249C402043052358
:100800001B071863F9E13D480069082398433B4BF7
:10081000186100BF05200007436B0846113801240A
:1008200084402343052000074363E6E105200007D9
:10083000406BFF230133184305231B075863DCE19A
:1008400005200007406B01235B02184305231B07AB
:1008500058632A48006902239843284B1861CCE169
:1008600005200007406B01239B02184305231B074B
:1008700058632248006940084000204B1861BCE1E1
:1008800005200007406B0123DB02184305231B07EB
:1008900058631A48006910239843184B1861ACE15B
:1008A00005200007406B0123DB03184305231B07CA
:1008B00058631248006901231B0618430F4B186147
:1008C0009BE10E480068202318430C4B1860184623
:1008D0000069DB041843094B18618EE1052000070D
:1008E000406B0423184305231B0758630348006922
:1008F00001239B061843014B18617EE14000005024
:1009000005200007406B0823184305231B07586385
:10091000BB4800690123DB061843B94B18616CE141
:1009200000BF00BF00BF00BF00BF292903DB2B2988
:1009300001DC002200E00422292901D02C2910D159
:1009400005200007406B0F239340184305231B0726
:100950005863AB4800690123DB029843A84B186138
:1009600022E02A2901D02D2909D105200007406B5A
:1009700003239340184305231B07586314E02B29D6
:1009800001D02E2910D105200007406B931C0324B1
:100990009C40204305231B075863994800690123A5
:1009A000DB029843964B186127E105200007C06BD6
:1009B00003239B03184305231B07D8631DE100BFD6
:1009C00000BF302908D105200007006B0B02184337
:1009D00005231B0718630AE005200007036B084680
:1009E00028380124844023430520000703638448FA
:1009F00000690123DB029843814B1861FDE000BFD1
:100A000000BF312916D105200007006B03239B038B
:100A1000184305231B0718637948006901235B020B
:100A20009843774B1861184600695B019843744BF3
:100A300018611BE005200007036B084628380124D5
:100A400084402343052000070363362907D16C48FF
:100A500000690123DB029843694B186106E068488E
:100A6000006901235B029843654B1861C5E000BF34
:100A700000BF322915D105200007406B0123DB029E
:100A8000184305231B0758635D480069102318436A
:100A90005B4B18611846006820231843584B1860B8
:100AA00017E038290FD105200007406B0123DB0236
:100AB000184305231B075863514800691023184346
:100AC0004F4B186105E04E480068202318434C4BFB
:100AD000186092E000BF00BF332906D14848006883
:100AE00003231843464B18600EE03A2906D14448C8
:100AF000006801231843424B186005E04048006835
:100B0000022318433E4B186077E005200007406B36
:100B10000C23184305231B07586339480069032336
:100B20005B031843364B186105200007006B354BFB
:100B3000184305231B07186331480069FF231B0472
:100B400018432F4B186100BF3C291ED10520000718
:100B5000406B0C23984305231B0758632848006902
:100B600003235B039843264B186105200007006BA5
:100B7000244BDB43184005231B07186320480069FA
:100B8000FF231B0498431E4B18611D480069032373
:100B9000DB0218431A4B186105200007806BFF2306
:100BA0000133184305231B0798631846006B032382
:100BB0009B02184305231B0718631846406BC0238C
:100BC000184305231B0758631846006BC0231843BE
:100BD00005231B0718631846806B0B4B184305232E
:100BE0001B0798631846406B03231B031843052318
:100BF0001B07586301E0054810BD00BF0020FBE75C
:100C0000400000503E700000C0C000000189FFFF9E
:100C100038B50346002901DB102901DD1C4838BD29
:100C200098011C4C00190090002A03D0012A01D021
:100C3000022A1DD1009800684D000324AC40A04357
:100C4000009C2060012A08D1009800684D00012412
:100C5000AC402043009C206017E0022A15D1009888
:100C600000684D000224AC402043009C20600CE052
:100C7000032A08D1009800684D000324AC402043AB
:100C8000009C206001E00248C9E70020C7E700009F
:100C90000189FFFF0040005010B50346002901DB29
:100CA000102901DD054810BD9801054C0219906816
:100CB00001248C40204390600020F4E70189FFFF6D
:100CC00000400050084909684143084A5161002129
:100CD00091610521116100BF0449096901221204D3
:100CE00011400029F8D070470400002000E000E027
:100CF00000487047001BB7007FB50025184B0FCB8D
:100D00006C460FC41748006A0003C00F002801D0CA
:100D1000154C00E0154C1348006AC003C00F0028B2
:100D200001D0002519E00F4A126A9204D20E911CDC
:100D30000C4A126AD205D20D921C62431046FFF78C
:100D400043FA06460748006A0004800F80006A469E
:100D500011583046FFF738FA0546284604B070BDF2
:100D6000741500000002005000805101001BB70004
:100D7000F8B506460D4617463948341860684008ED
:100D80004000E907C90F084360606068022188439A
:100D90002940490849000222114008436060606808
:100DA000042188432940890889000422114008430E
:100DB00060606068082188432940C908C90008228A
:100DC0001140084360606068110288431021294087
:100DD0000909C902120211400843606060681021CD
:100DE0008843294009090901102211400843606025
:100DF0006068202188432940490949012022114087
:100E00000843606060684021884380212940C90907
:100E10008901402211400843606060689100884366
:100E20002940090A09029200114008436060002E1F
:100E300005D10C4807600C2000F078FA0EE0012084
:100E40000005864205D1084807600D2000F06EFAC3
:100E500004E0064807600C2000F068FAF8BD0000C6
:100E60000000054034000020380000203C00002035
:100E7000F8B506460C46002E09D001200005864232
:100E800005D041208003864201D09048F8BDA0796A
:100E900000280ED0A07903280BD0A079012808D013
:100EA000A079052805D0A079072802D08748401CE2
:100EB000ECE7207900280BD02079012808D0207990
:100EC000022805D02079032802D08048801CDDE765
:100ED0006079002808D06079012805D06079012860
:100EE00002D07A48C01CD1E7E079002814D0E0791C
:100EF000012811D0E07902280ED0E07903280BD028
:100F0000E079042808D0E079052805D0E0790628A2
:100F100002D06E48001DB9E7002E1AD10520000747
:100F2000C068012109048843401805210907C860E9
:100F30000846C06801210904884305210907C860E3
:100F4000634880680121090488434018604988602B
:100F500035E001200005864217D105200007C06852
:100F6000F1108843401805210907C8600846C06889
:100F7000F110884305210907C86055488068F110C1
:100F8000884340185249886019E005200007C0686E
:100F9000012189048843401805210907C8600846D3
:100FA000C06801218904884305210907C8604848B1
:100FB0008068012189048843401845498860454874
:100FC0003518A86804218843001DA860A86802217C
:100FD0008843801CA860A868F0218843E179090152
:100FE000F02211400843A860E86820218843A179D5
:100FF0000422114089084901202211400843E86079
:10100000E86810218843A1790222114049080901AA
:10101000102211400843E860E86808218843A1795C
:10102000C900082211400843E860E8688008800091
:1010300021798907890F0843E860E868042188431B
:1010400061798900042211400843E860286A000A97
:101050000002217A084328621D480068C007C00FBB
:10106000002807D01A484069032109068843184917
:10107000486122E01648006AC003C00F00280AD168
:1010800013484069032109068843012109064018D5
:101090000F49486111E00E4800684007C00F002862
:1010A00008D00B48406903210906884340180849C5
:1010B000486102E00548801DE8E600F0E1F80746D7
:1010C00032462168FFF778F90020DFE60298FFFF3B
:1010D000000200500000054070B503460C460C4865
:1010E0001D18002110E0002606E0761C0120800774
:1010F000864201D3074870BDA8694004C00F00288C
:10110000F3D128686054491C9142ECD30020F2E7E7
:10111000000005400198FFFF70B503460C460C48DF
:101120001D18002110E0002606E0761C0120800733
:10113000864201D3074870BDA869C000C00F0028CF
:10114000F3D0605C2860491C9142ECD30020F2E7A8
:10115000000005400198FFFF10B5012080030549FC
:10116000086205480068002802D0034800688047EC
:1011700010BD0000404000502C00002010B50120A0
:10118000C0030549086205480068002802D00348EA
:101190000068804710BD0000404000503000002033
:1011A0000EB52920FFF788F94B20C00100900321DC
:1011B00068460171002141718171C1716946002049
:1011C000FFF756FE024A01210020FFF7D1FD0EBDB8
:1011D000C913000001B5012269460020FFF79CFFFA
:1011E00008BD000001490860704700002000002091
:1011F0001CB50E48006A01900C484030006A00900F
:1012000003218903009888430090084901980862E7
:10121000064940310098086205480068002804D05B
:10122000034A00990198126890471CBD0040005085
:10123000240000200EB51048006A02900E4840308D
:10124000006A01900C488030006A00900A490298B8
:1012500008620949403101980862074980310098C5
:10126000086206480068002805D0044B009A0199DE
:1012700002981B6898470EBD80400050280000204F
:1012800070B500240E4880690005050F0C484069C0
:101290008001800F002803D1FFF72AFD04460AE0F1
:1012A000074840698001800F012803D1FFF724FD22
:1012B000044600E0034C691C2046FEF785FF70BD24
:1012C000000200500080510110B501220E210020C3
:1012D000FFF79EFC01220F210020FFF799FC10BDB3
:1012E00010B5002211460220FFF792FC00220121D6
:1012F0000220FFF78DFC002202210846FFF788FC40
:10130000002203210220FFF783FC00220721032093
:10131000FFF77EFC00220C211046FFF779FC00222B
:101320000D211046FFF774FC10BD0000C206D20E5E
:1013300001219140014A11607047000000E100E086
:1013400010B50748006840218843403004490860D0
:1013500004480068002802D002480068804710BD99
:1013600000020050440000207047000070B50A4899
:10137000C4690A48C5690A480068002803D02046A5
:1013800007490968884707480068002803D02846AD
:1013900004490968884770BD0000054000401540B9
:1013A000340000203C00002010B50548C469054801
:1013B0000068002803D0204602490968884710BD0C
:1013C000000015403800002038B5044616A000681B
:1013D00000901BE0012269460020FFF77DFE1348C4
:1013E000008808280BDA6846007811490F4A1288ED
:1013F00088540E480088401C0C49088006E00B48C1
:101400000088082802D10020084908800948C069DE
:10141000C007C00F0028DDD105480078402802D160
:1014200005480068804738BDFF0000001C00002010
:1014300048000020000005402000002030B4744621
:10144000641E2578641CAB4204D3635D5B00E31823
:1014500030BC18471D46F8E71CB5012401250126BC
:101460000127012001900090FFF79AFE3848FFF70E
:10147000B9FEFFF735FFFFF727FF67E001210220E4
:10148000FFF704F8002804D1012D02D10220FFF754
:10149000A1FE02210846FEF7F9FF002804D1012F22
:1014A00002D10820FFF796FE03210220FEF7EEFF8F
:1014B000002804D1012E02D10420FFF78BFE072162
:1014C0000320FEF7E3FF002804D1012C02D1012004
:1014D000FFF780FE0C210020FEF7D8FF002805D181
:1014E0000198012802D12020FFF774FE0D21002071
:1014F000FEF7CCFF002805D10098012802D110206A
:10150000FFF768FE01210220FEF7C0FFC5B20221ED
:101510000846FEF7BBFFC7B203210220FEF7B6FF65
:10152000C6B207210320FEF7B1FFC4B20C21002090
:10153000FEF7ACFFC0B201900D210020FEF7A6FF20
:10154000C0B200907D20C000FFF7BCFB96E7000012
:101550005515000010B5012200210220FFF758FBAD
:1015600000210220FFF798FB0148FFF7ABFB10BDFD
:1015700020A107000100000002000000020000009E
:1015800004000000A4150000000000204800000036
:1015900004010000EC150000480000207004000069
:1015A000200100000080510116000000001BB70060
:1015B00000800000008051011027000000805101D0
:1015C000000000000000000000000000000000001B
:1015D000000000000000000000000000000000000B
:0C15E000000000000000000000000000FF
:040000050000016591
:00000001FF
